{
  "contractName": "MyToken",
  "abi": [
    {
      "inputs": [
        {
          "internalType": "string",
          "name": "_name",
          "type": "string"
        },
        {
          "internalType": "string",
          "name": "_symbol",
          "type": "string"
        },
        {
          "internalType": "uint8",
          "name": "_decimals",
          "type": "uint8"
        },
        {
          "internalType": "uint256",
          "name": "__totalSupply",
          "type": "uint256"
        },
        {
          "internalType": "uint256",
          "name": "_tokenRateInWei",
          "type": "uint256"
        }
      ],
      "stateMutability": "nonpayable",
      "type": "constructor"
    },
    {
      "anonymous": false,
      "inputs": [
        {
          "indexed": true,
          "internalType": "address",
          "name": "owner",
          "type": "address"
        },
        {
          "indexed": true,
          "internalType": "address",
          "name": "spender",
          "type": "address"
        },
        {
          "indexed": false,
          "internalType": "uint256",
          "name": "value",
          "type": "uint256"
        }
      ],
      "name": "Approval",
      "type": "event"
    },
    {
      "anonymous": false,
      "inputs": [
        {
          "indexed": true,
          "internalType": "address",
          "name": "from",
          "type": "address"
        },
        {
          "indexed": true,
          "internalType": "address",
          "name": "to",
          "type": "address"
        },
        {
          "indexed": false,
          "internalType": "uint256",
          "name": "value",
          "type": "uint256"
        }
      ],
      "name": "Transfer",
      "type": "event"
    },
    {
      "inputs": [
        {
          "internalType": "address",
          "name": "",
          "type": "address"
        },
        {
          "internalType": "address",
          "name": "",
          "type": "address"
        }
      ],
      "name": "_allowance",
      "outputs": [
        {
          "internalType": "uint256",
          "name": "",
          "type": "uint256"
        }
      ],
      "stateMutability": "view",
      "type": "function",
      "constant": true
    },
    {
      "inputs": [
        {
          "internalType": "address",
          "name": "",
          "type": "address"
        }
      ],
      "name": "_balanceOf",
      "outputs": [
        {
          "internalType": "uint256",
          "name": "",
          "type": "uint256"
        }
      ],
      "stateMutability": "view",
      "type": "function",
      "constant": true
    },
    {
      "inputs": [],
      "name": "_owner",
      "outputs": [
        {
          "internalType": "address payable",
          "name": "",
          "type": "address"
        }
      ],
      "stateMutability": "view",
      "type": "function",
      "constant": true
    },
    {
      "inputs": [],
      "name": "_totalSupply",
      "outputs": [
        {
          "internalType": "uint256",
          "name": "",
          "type": "uint256"
        }
      ],
      "stateMutability": "view",
      "type": "function",
      "constant": true
    },
    {
      "inputs": [],
      "name": "decimals",
      "outputs": [
        {
          "internalType": "uint8",
          "name": "",
          "type": "uint8"
        }
      ],
      "stateMutability": "view",
      "type": "function",
      "constant": true
    },
    {
      "inputs": [],
      "name": "name",
      "outputs": [
        {
          "internalType": "string",
          "name": "",
          "type": "string"
        }
      ],
      "stateMutability": "view",
      "type": "function",
      "constant": true
    },
    {
      "inputs": [],
      "name": "symbol",
      "outputs": [
        {
          "internalType": "string",
          "name": "",
          "type": "string"
        }
      ],
      "stateMutability": "view",
      "type": "function",
      "constant": true
    },
    {
      "inputs": [],
      "name": "tokenRateInWei",
      "outputs": [
        {
          "internalType": "uint256",
          "name": "",
          "type": "uint256"
        }
      ],
      "stateMutability": "view",
      "type": "function",
      "constant": true
    },
    {
      "inputs": [],
      "name": "totalSupply",
      "outputs": [
        {
          "internalType": "uint256",
          "name": "",
          "type": "uint256"
        }
      ],
      "stateMutability": "view",
      "type": "function",
      "constant": true
    },
    {
      "inputs": [
        {
          "internalType": "address",
          "name": "account",
          "type": "address"
        }
      ],
      "name": "balanceOf",
      "outputs": [
        {
          "internalType": "uint256",
          "name": "",
          "type": "uint256"
        }
      ],
      "stateMutability": "view",
      "type": "function",
      "constant": true
    },
    {
      "inputs": [
        {
          "internalType": "address",
          "name": "recipient",
          "type": "address"
        },
        {
          "internalType": "uint256",
          "name": "amount",
          "type": "uint256"
        }
      ],
      "name": "transfer",
      "outputs": [
        {
          "internalType": "bool",
          "name": "",
          "type": "bool"
        }
      ],
      "stateMutability": "nonpayable",
      "type": "function"
    },
    {
      "inputs": [
        {
          "internalType": "address",
          "name": "owner",
          "type": "address"
        },
        {
          "internalType": "address",
          "name": "spender",
          "type": "address"
        }
      ],
      "name": "allowance",
      "outputs": [
        {
          "internalType": "uint256",
          "name": "",
          "type": "uint256"
        }
      ],
      "stateMutability": "view",
      "type": "function",
      "constant": true
    },
    {
      "inputs": [
        {
          "internalType": "address",
          "name": "spender",
          "type": "address"
        },
        {
          "internalType": "uint256",
          "name": "amount",
          "type": "uint256"
        }
      ],
      "name": "approve",
      "outputs": [
        {
          "internalType": "bool",
          "name": "",
          "type": "bool"
        }
      ],
      "stateMutability": "nonpayable",
      "type": "function"
    },
    {
      "inputs": [
        {
          "internalType": "address",
          "name": "sender",
          "type": "address"
        },
        {
          "internalType": "address",
          "name": "recipient",
          "type": "address"
        },
        {
          "internalType": "uint256",
          "name": "amount",
          "type": "uint256"
        }
      ],
      "name": "transferFrom",
      "outputs": [
        {
          "internalType": "bool",
          "name": "",
          "type": "bool"
        }
      ],
      "stateMutability": "nonpayable",
      "type": "function"
    },
    {
      "inputs": [
        {
          "internalType": "uint256",
          "name": "amount",
          "type": "uint256"
        }
      ],
      "name": "mint",
      "outputs": [],
      "stateMutability": "nonpayable",
      "type": "function"
    },
    {
      "inputs": [
        {
          "internalType": "uint256",
          "name": "amount",
          "type": "uint256"
        }
      ],
      "name": "burn",
      "outputs": [],
      "stateMutability": "nonpayable",
      "type": "function"
    },
    {
      "inputs": [
        {
          "internalType": "uint256",
          "name": "amount",
          "type": "uint256"
        }
      ],
      "name": "buyToken",
      "outputs": [],
      "stateMutability": "payable",
      "type": "function",
      "payable": true
    }
  ],
  "bytecode": "0x60806040523480156200001157600080fd5b5060405162002330380380620023308339818101604052810190620000379190620003ea565b8160008190555084600390805190602001906200005692919062000124565b5083600490805190602001906200006f92919062000124565b5082600560006101000a81548160ff021916908360ff16021790555033600560016101000a81548173ffffffffffffffffffffffffffffffffffffffff021916908373ffffffffffffffffffffffffffffffffffffffff16021790555080600681905550600054600160003373ffffffffffffffffffffffffffffffffffffffff1673ffffffffffffffffffffffffffffffffffffffff16815260200190815260200160002081905550505050505062000514565b8280546200013290620004df565b90600052602060002090601f016020900481019282620001565760008555620001a2565b82601f106200017157805160ff1916838001178555620001a2565b82800160010185558215620001a2579182015b82811115620001a157825182559160200191906001019062000184565b5b509050620001b19190620001b5565b5090565b5b80821115620001d0576000816000905550600101620001b6565b5090565b6000604051905090565b600080fd5b600080fd5b600080fd5b600080fd5b6000601f19601f8301169050919050565b7f4e487b7100000000000000000000000000000000000000000000000000000000600052604160045260246000fd5b6200023d82620001f2565b810181811067ffffffffffffffff821117156200025f576200025e62000203565b5b80604052505050565b600062000274620001d4565b905062000282828262000232565b919050565b600067ffffffffffffffff821115620002a557620002a462000203565b5b620002b082620001f2565b9050602081019050919050565b60005b83811015620002dd578082015181840152602081019050620002c0565b83811115620002ed576000848401525b50505050565b60006200030a620003048462000287565b62000268565b905082815260208101848484011115620003295762000328620001ed565b5b62000336848285620002bd565b509392505050565b600082601f830112620003565762000355620001e8565b5b815162000368848260208601620002f3565b91505092915050565b600060ff82169050919050565b620003898162000371565b81146200039557600080fd5b50565b600081519050620003a9816200037e565b92915050565b6000819050919050565b620003c481620003af565b8114620003d057600080fd5b50565b600081519050620003e481620003b9565b92915050565b600080600080600060a08688031215620004095762000408620001de565b5b600086015167ffffffffffffffff8111156200042a5762000429620001e3565b5b62000438888289016200033e565b955050602086015167ffffffffffffffff8111156200045c576200045b620001e3565b5b6200046a888289016200033e565b94505060406200047d8882890162000398565b93505060606200049088828901620003d3565b9250506080620004a388828901620003d3565b9150509295509295909350565b7f4e487b7100000000000000000000000000000000000000000000000000000000600052602260045260246000fd5b60006002820490506001821680620004f857607f821691505b6020821081036200050e576200050d620004b0565b5b50919050565b611e0c80620005246000396000f3fe6080604052600436106100fe5760003560e01c806342966c6811610095578063a9059cbb11610064578063a9059cbb1461032a578063b2bdfa7b14610367578063cca3e83214610392578063dd336c12146103cf578063dd62ed3e1461040c576100fe565b806342966c681461027057806370a082311461029957806395d89b41146102d6578063a0712d6814610301576100fe565b806326aaa857116100d157806326aaa857146101d35780632d296bf1146101fe578063313ce5671461021a5780633eaaf86b14610245576100fe565b806306fdde0314610103578063095ea7b31461012e57806318160ddd1461016b57806323b872dd14610196575b600080fd5b34801561010f57600080fd5b50610118610449565b60405161012591906114b2565b60405180910390f35b34801561013a57600080fd5b506101556004803603810190610150919061156d565b6104d7565b60405161016291906115c8565b60405180910390f35b34801561017757600080fd5b506101806105d2565b60405161018d91906115f2565b60405180910390f35b3480156101a257600080fd5b506101bd60048036038101906101b8919061160d565b6105db565b6040516101ca91906115c8565b60405180910390f35b3480156101df57600080fd5b506101e86109a4565b6040516101f591906115f2565b60405180910390f35b61021860048036038101906102139190611660565b6109aa565b005b34801561022657600080fd5b5061022f610be0565b60405161023c91906116a9565b60405180910390f35b34801561025157600080fd5b5061025a610bf3565b60405161026791906115f2565b60405180910390f35b34801561027c57600080fd5b5061029760048036038101906102929190611660565b610bf9565b005b3480156102a557600080fd5b506102c060048036038101906102bb91906116c4565b610d95565b6040516102cd91906115f2565b60405180910390f35b3480156102e257600080fd5b506102eb610dde565b6040516102f891906114b2565b60405180910390f35b34801561030d57600080fd5b5061032860048036038101906103239190611660565b610e6c565b005b34801561033657600080fd5b50610351600480360381019061034c919061156d565b611016565b60405161035e91906115c8565b60405180910390f35b34801561037357600080fd5b5061037c611223565b6040516103899190611712565b60405180910390f35b34801561039e57600080fd5b506103b960048036038101906103b491906116c4565b611249565b6040516103c691906115f2565b60405180910390f35b3480156103db57600080fd5b506103f660048036038101906103f1919061172d565b611261565b60405161040391906115f2565b60405180910390f35b34801561041857600080fd5b50610433600480360381019061042e919061172d565b611286565b60405161044091906115f2565b60405180910390f35b600380546104569061179c565b80601f01602080910402602001604051908101604052809291908181526020018280546104829061179c565b80156104cf5780601f106104a4576101008083540402835291602001916104cf565b820191906000526020600020905b8154815290600101906020018083116104b257829003601f168201915b505050505081565b60008073ffffffffffffffffffffffffffffffffffffffff168373ffffffffffffffffffffffffffffffffffffffff1603610547576040517f08c379a000000000000000000000000000000000000000000000000000000000815260040161053e9061183f565b60405180910390fd5b81600260003373ffffffffffffffffffffffffffffffffffffffff1673ffffffffffffffffffffffffffffffffffffffff16815260200190815260200160002060008573ffffffffffffffffffffffffffffffffffffffff1673ffffffffffffffffffffffffffffffffffffffff168152602001908152602001600020819055506001905092915050565b60008054905090565b60008073ffffffffffffffffffffffffffffffffffffffff168473ffffffffffffffffffffffffffffffffffffffff160361064b576040517f08c379a0000000000000000000000000000000000000000000000000000000008152600401610642906118d1565b60405180910390fd5b600073ffffffffffffffffffffffffffffffffffffffff168373ffffffffffffffffffffffffffffffffffffffff16036106ba576040517f08c379a00000000000000000000000000000000000000000000000000000000081526004016106b19061183f565b60405180910390fd5b600260008573ffffffffffffffffffffffffffffffffffffffff1673ffffffffffffffffffffffffffffffffffffffff16815260200190815260200160002060003373ffffffffffffffffffffffffffffffffffffffff1673ffffffffffffffffffffffffffffffffffffffff16815260200190815260200160002054821115610779576040517f08c379a00000000000000000000000000000000000000000000000000000000081526004016107709061193d565b60405180910390fd5b61080882600260008773ffffffffffffffffffffffffffffffffffffffff1673ffffffffffffffffffffffffffffffffffffffff16815260200190815260200160002060003373ffffffffffffffffffffffffffffffffffffffff1673ffffffffffffffffffffffffffffffffffffffff1681526020019081526020016000205461130d90919063ffffffff16565b600260008673ffffffffffffffffffffffffffffffffffffffff1673ffffffffffffffffffffffffffffffffffffffff16815260200190815260200160002060003373ffffffffffffffffffffffffffffffffffffffff1673ffffffffffffffffffffffffffffffffffffffff1681526020019081526020016000208190555081600160008673ffffffffffffffffffffffffffffffffffffffff1673ffffffffffffffffffffffffffffffffffffffff16815260200190815260200160002060008282546108d7919061198c565b9250508190555081600160008573ffffffffffffffffffffffffffffffffffffffff1673ffffffffffffffffffffffffffffffffffffffff168152602001908152602001600020600082825461092d91906119c0565b925050819055508273ffffffffffffffffffffffffffffffffffffffff168473ffffffffffffffffffffffffffffffffffffffff167fddf252ad1be2c89b69c2b068fc378daa952ba7f163c4a11628f55a4df523b3ef8460405161099191906115f2565b60405180910390a3600190509392505050565b60065481565b600081116109ed576040517f08c379a00000000000000000000000000000000000000000000000000000000081526004016109e490611a88565b60405180910390fd5b34600654826109fc9190611aa8565b1115610a3d576040517f08c379a0000000000000000000000000000000000000000000000000000000008152600401610a3490611b4e565b60405180910390fd5b610a8f81600160003373ffffffffffffffffffffffffffffffffffffffff1673ffffffffffffffffffffffffffffffffffffffff1681526020019081526020016000205461135790919063ffffffff16565b600160003373ffffffffffffffffffffffffffffffffffffffff1673ffffffffffffffffffffffffffffffffffffffff16815260200190815260200160002081905550610ae78160005461130d90919063ffffffff16565b600081905550600560019054906101000a900473ffffffffffffffffffffffffffffffffffffffff1673ffffffffffffffffffffffffffffffffffffffff166108fc349081150290604051600060405180830381858888f19350505050158015610b55573d6000803e3d6000fd5b503373ffffffffffffffffffffffffffffffffffffffff16600560019054906101000a900473ffffffffffffffffffffffffffffffffffffffff1673ffffffffffffffffffffffffffffffffffffffff167fddf252ad1be2c89b69c2b068fc378daa952ba7f163c4a11628f55a4df523b3ef83604051610bd591906115f2565b60405180910390a350565b600560009054906101000a900460ff1681565b60005481565b60008111610c3c576040517f08c379a0000000000000000000000000000000000000000000000000000000008152600401610c3390611a88565b60405180910390fd5b80600160003373ffffffffffffffffffffffffffffffffffffffff1673ffffffffffffffffffffffffffffffffffffffff168152602001908152602001600020541015610cbe576040517f08c379a0000000000000000000000000000000000000000000000000000000008152600401610cb590611bba565b60405180910390fd5b80600160003373ffffffffffffffffffffffffffffffffffffffff1673ffffffffffffffffffffffffffffffffffffffff1681526020019081526020016000206000828254610d0d919061198c565b9250508190555080600080828254610d25919061198c565b92505081905550600073ffffffffffffffffffffffffffffffffffffffff163373ffffffffffffffffffffffffffffffffffffffff167fddf252ad1be2c89b69c2b068fc378daa952ba7f163c4a11628f55a4df523b3ef83604051610d8a91906115f2565b60405180910390a350565b6000600160008373ffffffffffffffffffffffffffffffffffffffff1673ffffffffffffffffffffffffffffffffffffffff168152602001908152602001600020549050919050565b60048054610deb9061179c565b80601f0160208091040260200160405190810160405280929190818152602001828054610e179061179c565b8015610e645780601f10610e3957610100808354040283529160200191610e64565b820191906000526020600020905b815481529060010190602001808311610e4757829003601f168201915b505050505081565b600560019054906101000a900473ffffffffffffffffffffffffffffffffffffffff1673ffffffffffffffffffffffffffffffffffffffff163373ffffffffffffffffffffffffffffffffffffffff1614610efc576040517f08c379a0000000000000000000000000000000000000000000000000000000008152600401610ef390611c26565b60405180910390fd5b60008111610f3f576040517f08c379a0000000000000000000000000000000000000000000000000000000008152600401610f3690611cb8565b60405180910390fd5b80600080828254610f5091906119c0565b9250508190555080600160003373ffffffffffffffffffffffffffffffffffffffff1673ffffffffffffffffffffffffffffffffffffffff1681526020019081526020016000206000828254610fa691906119c0565b925050819055503373ffffffffffffffffffffffffffffffffffffffff16600073ffffffffffffffffffffffffffffffffffffffff167fddf252ad1be2c89b69c2b068fc378daa952ba7f163c4a11628f55a4df523b3ef8360405161100b91906115f2565b60405180910390a350565b60008073ffffffffffffffffffffffffffffffffffffffff168373ffffffffffffffffffffffffffffffffffffffff1603611086576040517f08c379a000000000000000000000000000000000000000000000000000000000815260040161107d906118d1565b60405180910390fd5b81600160003373ffffffffffffffffffffffffffffffffffffffff1673ffffffffffffffffffffffffffffffffffffffff168152602001908152602001600020541015611108576040517f08c379a00000000000000000000000000000000000000000000000000000000081526004016110ff90611d4a565b60405180910390fd5b81600160003373ffffffffffffffffffffffffffffffffffffffff1673ffffffffffffffffffffffffffffffffffffffff1681526020019081526020016000206000828254611157919061198c565b9250508190555081600160008573ffffffffffffffffffffffffffffffffffffffff1673ffffffffffffffffffffffffffffffffffffffff16815260200190815260200160002060008282546111ad91906119c0565b925050819055508273ffffffffffffffffffffffffffffffffffffffff163373ffffffffffffffffffffffffffffffffffffffff167fddf252ad1be2c89b69c2b068fc378daa952ba7f163c4a11628f55a4df523b3ef8460405161121191906115f2565b60405180910390a36001905092915050565b600560019054906101000a900473ffffffffffffffffffffffffffffffffffffffff1681565b60016020528060005260406000206000915090505481565b6002602052816000526040600020602052806000526040600020600091509150505481565b6000600260008473ffffffffffffffffffffffffffffffffffffffff1673ffffffffffffffffffffffffffffffffffffffff16815260200190815260200160002060008373ffffffffffffffffffffffffffffffffffffffff1673ffffffffffffffffffffffffffffffffffffffff16815260200190815260200160002054905092915050565b600061134f83836040518060400160405280601e81526020017f536166654d6174683a207375627472616374696f6e206f766572666c6f7700008152506113b5565b905092915050565b600080828461136691906119c0565b9050838110156113ab576040517f08c379a00000000000000000000000000000000000000000000000000000000081526004016113a290611db6565b60405180910390fd5b8091505092915050565b60008383111582906113fd576040517f08c379a00000000000000000000000000000000000000000000000000000000081526004016113f491906114b2565b60405180910390fd5b506000838561140c919061198c565b9050809150509392505050565b600081519050919050565b600082825260208201905092915050565b60005b83811015611453578082015181840152602081019050611438565b83811115611462576000848401525b50505050565b6000601f19601f8301169050919050565b600061148482611419565b61148e8185611424565b935061149e818560208601611435565b6114a781611468565b840191505092915050565b600060208201905081810360008301526114cc8184611479565b905092915050565b600080fd5b600073ffffffffffffffffffffffffffffffffffffffff82169050919050565b6000611504826114d9565b9050919050565b611514816114f9565b811461151f57600080fd5b50565b6000813590506115318161150b565b92915050565b6000819050919050565b61154a81611537565b811461155557600080fd5b50565b60008135905061156781611541565b92915050565b60008060408385031215611584576115836114d4565b5b600061159285828601611522565b92505060206115a385828601611558565b9150509250929050565b60008115159050919050565b6115c2816115ad565b82525050565b60006020820190506115dd60008301846115b9565b92915050565b6115ec81611537565b82525050565b600060208201905061160760008301846115e3565b92915050565b600080600060608486031215611626576116256114d4565b5b600061163486828701611522565b935050602061164586828701611522565b925050604061165686828701611558565b9150509250925092565b600060208284031215611676576116756114d4565b5b600061168484828501611558565b91505092915050565b600060ff82169050919050565b6116a38161168d565b82525050565b60006020820190506116be600083018461169a565b92915050565b6000602082840312156116da576116d96114d4565b5b60006116e884828501611522565b91505092915050565b60006116fc826114d9565b9050919050565b61170c816116f1565b82525050565b60006020820190506117276000830184611703565b92915050565b60008060408385031215611744576117436114d4565b5b600061175285828601611522565b925050602061176385828601611522565b9150509250929050565b7f4e487b7100000000000000000000000000000000000000000000000000000000600052602260045260246000fd5b600060028204905060018216806117b457607f821691505b6020821081036117c7576117c661176d565b5b50919050565b7f45524332303a207472616e7366657220746f20746865207a65726f206164647260008201527f6573730000000000000000000000000000000000000000000000000000000000602082015250565b6000611829602383611424565b9150611834826117cd565b604082019050919050565b600060208201905081810360008301526118588161181c565b9050919050565b7f45524332303a207472616e736665722066726f6d20746865207a65726f20616460008201527f6472657373000000000000000000000000000000000000000000000000000000602082015250565b60006118bb602583611424565b91506118c68261185f565b604082019050919050565b600060208201905081810360008301526118ea816118ae565b9050919050565b7f45524332303a20696e73756666696369656e7420616c6c6f77616e6365000000600082015250565b6000611927601d83611424565b9150611932826118f1565b602082019050919050565b600060208201905081810360008301526119568161191a565b9050919050565b7f4e487b7100000000000000000000000000000000000000000000000000000000600052601160045260246000fd5b600061199782611537565b91506119a283611537565b9250828210156119b5576119b461195d565b5b828203905092915050565b60006119cb82611537565b91506119d683611537565b9250827fffffffffffffffffffffffffffffffffffffffffffffffffffffffffffffffff03821115611a0b57611a0a61195d565b5b828201905092915050565b7f45524332303a206275726e20616d6f756e74206d75737420626520677265617460008201527f6572207468616e20300000000000000000000000000000000000000000000000602082015250565b6000611a72602983611424565b9150611a7d82611a16565b604082019050919050565b60006020820190508181036000830152611aa181611a65565b9050919050565b6000611ab382611537565b9150611abe83611537565b9250817fffffffffffffffffffffffffffffffffffffffffffffffffffffffffffffffff0483118215151615611af757611af661195d565b5b828202905092915050565b7f20696e73756666696369656e742062616c616e63650000000000000000000000600082015250565b6000611b38601583611424565b9150611b4382611b02565b602082019050919050565b60006020820190508181036000830152611b6781611b2b565b9050919050565b7f45524332303a20696e73756666696369656e742062616c616e63650000000000600082015250565b6000611ba4601b83611424565b9150611baf82611b6e565b602082019050919050565b60006020820190508181036000830152611bd381611b97565b9050919050565b7f45524332303a206d696e74206e6f7420617574686f72697a6564000000000000600082015250565b6000611c10601a83611424565b9150611c1b82611bda565b602082019050919050565b60006020820190508181036000830152611c3f81611c03565b9050919050565b7f45524332303a206d696e7420616d6f756e74206d75737420626520677265617460008201527f6572207468616e20300000000000000000000000000000000000000000000000602082015250565b6000611ca2602983611424565b9150611cad82611c46565b604082019050919050565b60006020820190508181036000830152611cd181611c95565b9050919050565b7f45524332303a207472616e7366657220616d6f756e742065786365656473206260008201527f616c616e63650000000000000000000000000000000000000000000000000000602082015250565b6000611d34602683611424565b9150611d3f82611cd8565b604082019050919050565b60006020820190508181036000830152611d6381611d27565b9050919050565b7f536166654d6174683a206164646974696f6e206f766572666c6f770000000000600082015250565b6000611da0601b83611424565b9150611dab82611d6a565b602082019050919050565b60006020820190508181036000830152611dcf81611d93565b905091905056fea26469706673582212208f68f030113145ada781764c449de50196a9f273238b8c1eaf896b79e01a7d5364736f6c634300080d0033",
  "immutableReferences": {},
  "source": "// SPDX-License-Identifier: MIT\r\npragma solidity >=0.4.22 <0.9.0;\r\n\r\nimport \"./IERC20.sol\";\r\nimport \"./SafeMath.sol\";\r\n\r\ncontract MyToken is IERC20 {\r\n    using SafeMath for uint256;\r\n    uint256 public _totalSupply;\r\n    mapping(address => uint256) public _balanceOf;\r\n\r\n    mapping(address => mapping(address => uint256)) public _allowance;\r\n    string public name;\r\n    string public symbol;\r\n    uint8 public decimals;\r\n    address payable public _owner;\r\n    uint256 public tokenRateInWei;\r\n\r\n    constructor(\r\n        string memory _name,\r\n        string memory _symbol,\r\n        uint8 _decimals,\r\n        uint256 __totalSupply,\r\n        uint256 _tokenRateInWei\r\n    ) {\r\n        _totalSupply = __totalSupply;\r\n        name = _name;\r\n        symbol = _symbol;\r\n        decimals = _decimals;\r\n        _owner = payable(msg.sender);\r\n        tokenRateInWei = _tokenRateInWei;\r\n        // minted the totalSupply to the owner\r\n        _balanceOf[msg.sender] = _totalSupply;\r\n    }\r\n\r\n    function totalSupply() external view returns (uint256) {\r\n        return _totalSupply;\r\n    }\r\n\r\n    function balanceOf(address account) external view returns (uint256) {\r\n        return _balanceOf[account];\r\n    }\r\n\r\n    function transfer(address recipient, uint256 amount)\r\n        external\r\n        returns (bool)\r\n    {\r\n        require(\r\n            recipient != address(0),\r\n            \"ERC20: transfer from the zero address\"\r\n        );\r\n        require(\r\n            _balanceOf[msg.sender] >= amount,\r\n            \"ERC20: transfer amount exceeds balance\"\r\n        );\r\n        _balanceOf[msg.sender] -= amount;\r\n        _balanceOf[recipient] += amount;\r\n        emit Transfer(msg.sender, recipient, amount);\r\n\r\n        return true;\r\n    }\r\n\r\n    function allowance(address owner, address spender)\r\n        external\r\n        view\r\n        returns (uint256)\r\n    {\r\n        return _allowance[owner][spender];\r\n    }\r\n\r\n    function approve(address spender, uint256 amount) external returns (bool) {\r\n        require(spender != address(0), \"ERC20: transfer to the zero address\");\r\n\r\n        _allowance[msg.sender][spender] = amount;\r\n        return true;\r\n    }\r\n\r\n    function transferFrom(\r\n        address sender,\r\n        address recipient,\r\n        uint256 amount\r\n    ) external returns (bool) {\r\n        require(sender != address(0), \"ERC20: transfer from the zero address\");\r\n        require(recipient != address(0), \"ERC20: transfer to the zero address\");\r\n        require(\r\n            amount <= _allowance[sender][msg.sender],\r\n            \"ERC20: insufficient allowance\"\r\n        );\r\n        _allowance[sender][msg.sender] = _allowance[sender][msg.sender].sub(\r\n            amount\r\n        );\r\n        _balanceOf[sender] -= amount;\r\n        _balanceOf[recipient] += amount;\r\n        emit Transfer(sender, recipient, amount);\r\n        return true;\r\n    }\r\n\r\n    function mint(uint256 amount) external {\r\n        require(msg.sender == _owner, \"ERC20: mint not authorized\");\r\n        require(amount > 0, \"ERC20: mint amount must be greater than 0\");\r\n\r\n        _totalSupply += amount;\r\n        _balanceOf[msg.sender] += amount;\r\n        emit Transfer(address(0), msg.sender, amount);\r\n    }\r\n\r\n    function burn(uint256 amount) external {\r\n        require(amount > 0, \"ERC20: burn amount must be greater than 0\");\r\n        require(\r\n            _balanceOf[msg.sender] >= amount,\r\n            \"ERC20: insufficient balance\"\r\n        );\r\n        _balanceOf[msg.sender] -= amount;\r\n        _totalSupply -= amount;\r\n        emit Transfer(msg.sender, address(0), amount);\r\n    }\r\n\r\n    function buyToken(uint256 amount) external payable {\r\n        require(amount > 0, \"ERC20: burn amount must be greater than 0\");\r\n        require(amount * tokenRateInWei <= msg.value, \" insufficient balance\");\r\n        _balanceOf[msg.sender] = _balanceOf[msg.sender].add(amount);\r\n        _totalSupply = _totalSupply.sub(amount);\r\n        _owner.transfer(msg.value);\r\n        emit Transfer(_owner, msg.sender, amount);\r\n    }\r\n}\r\n",
  "sourcePath": "C:\\Users\\Hp\\Desktop\\blockchain\\erc20\\contracts\\MyToken.sol",
  "compiler": {
    "name": "solc",
    "version": "0.8.13+commit.abaa5c0e.Emscripten.clang"
  },
  "schemaVersion": "3.4.7",
  "updatedAt": "2022-05-12T11:49:27.190Z",
  "networkType": "ethereum",
  "devdoc": {
    "kind": "dev",
    "methods": {
      "allowance(address,address)": {
        "details": "Returns the remaining number of tokens that `spender` will be allowed to spend on behalf of `owner` through {transferFrom}. This is zero by default. This value changes when {approve} or {transferFrom} are called."
      },
      "approve(address,uint256)": {
        "details": "Sets `amount` as the allowance of `spender` over the caller's tokens. Returns a boolean value indicating whether the operation succeeded. IMPORTANT: Beware that changing an allowance with this method brings the risk that someone may use both the old and the new allowance by unfortunate transaction ordering. One possible solution to mitigate this race condition is to first reduce the spender's allowance to 0 and set the desired value afterwards: https://github.com/ethereum/EIPs/issues/20#issuecomment-263524729 Emits an {Approval} event."
      },
      "balanceOf(address)": {
        "details": "Returns the amount of tokens owned by `account`."
      },
      "totalSupply()": {
        "details": "Returns the amount of tokens in existence."
      },
      "transfer(address,uint256)": {
        "details": "Moves `amount` tokens from the caller's account to `recipient`. Returns a boolean value indicating whether the operation succeeded. Emits a {Transfer} event."
      },
      "transferFrom(address,address,uint256)": {
        "details": "Moves `amount` tokens from `sender` to `recipient` using the allowance mechanism. `amount` is then deducted from the caller's allowance. Returns a boolean value indicating whether the operation succeeded. Emits a {Transfer} event."
      }
    },
    "version": 1
  },
  "userdoc": {
    "kind": "user",
    "methods": {},
    "version": 1
  }
}